:100000000C9435000C945D000C945D000C945D0024
:100010000C945D000C945D000C945D000C945D00EC
:100020000C945D000C945D000C945D000C945D00DC
:100030000C945D000C945D000C945D000C945D00CC
:100040000C945D000C945D000C94A5010C947F0150
:100050000C945D000C945D000C945D000C945D00AC
:100060000C945D000C945D00D70111241FBECFEFEE
:10007000D8E0DEBFCDBF11E0A0E0B1E0E6EAF4E0F9
:1000800002C005900D92AA31B107D9F721E0AAE18B
:10009000B1E001C01D92A73BB207E1F710E0C5E354
:1000A000D0E004C02197FE010E944602C433D1076C
:1000B000C9F70E9404020C9451020C940000CF92E4
:1000C000DF92EF92FF920F931F93CF93DF936C0118
:1000D0007A018B01C0E0D0E0CE15DF0581F0D801B8
:1000E0006D918D01D601ED91FC910190F081E02D93
:1000F000C6010995892B11F02196EECF7E01C7012B
:10010000DF91CF911F910F91FF90EF90DF90CF90F3
:100110000895089580E090E00895FC01538D448D8A
:10012000252F30E0842F90E0821B930B541710F0A2
:10013000CF96089501970895FC01918D828D9817AF
:1001400061F0828DDF01A80FB11D5D968C91928DBB
:100150009F5F9F73928F90E008958FEF9FEF0895B8
:10016000FC01918D828D981731F0828DE80FF11D81
:10017000858D90E008958FEF9FEF0895FC01918D9C
:10018000228D892F90E0805C9F4F821B91098F7395
:1001900099270895FC01848DDF01A80FB11DA35A92
:1001A000BF4F2C91848D90E001968F739927848F97
:1001B000A689B7892C93A089B1898C9183708064BA
:1001C0008C93938D848D981306C00288F389E02D5B
:1001D00080818F7D80830895EF92FF920F931F930C
:1001E000CF93DF93EC0181E0888F9B8D8C8D9813EA
:1001F00005C0E889F989808185FD26C0F62E0B8D22
:1002000010E00F5F1F4F0F731127E02E8C8DE81247
:100210000CC00FB607FCFACFE889F989808185FF09
:10022000F5CFCE010E94CA00F1CF8B8DFE01E80F01
:10023000F11DE35AFF4FF0829FB7F8940B8FEA89C4
:10024000FB89808180620AC09FB7F894EE89FF899C
:100250006083E889F98980818370806480839FBF8F
:1002600081E090E0DF91CF911F910F91FF90EF908F
:100270000895CF93DF93EC01888D8823C9F0EA8934
:10028000FB89808185FD05C0A889B9898C9186FD8F
:100290000FC00FB607FCF5CF808185FFF2CFA8898C
:1002A000B9898C9185FFEDCFCE010E94CA00E7CFBE
:1002B000DF91CF910895CF93DF93009779F0FC0100
:1002C00001900020E9F73197AF01481B590BBC01A1
:1002D0008AE191E00E945F00EC0102C0C0E0D0E042
:1002E00042E050E062E171E08AE191E00E945F004B
:1002F0008C0F9D1FDF91CF9108950E944C021F9299
:100300000F920FB60F9211242F933F934F935F9349
:100310006F937F938F939F93AF93BF93EF93FF93CD
:100320008AE191E00E94CA00FF91EF91BF91AF91E5
:100330009F918F917F916F915F914F913F912F91FD
:100340000F900FBE0F901F9018951F920F920FB62F
:100350000F9211242F938F939F93EF93FF93E0912C
:100360002A01F0912B018081E0913001F09131015F
:1003700082FD12C09081809133018F5F8F73209135
:100380003401821751F0E0913301F0E0E65EFE4F58
:10039000958F8093330101C08081FF91EF919F91F0
:1003A0008F912F910F900FBE0F901F901895EAE13B
:1003B000F1E01382128288EE93E0A0E0B0E0848343
:1003C0009583A683B78384E091E09183808385EC55
:1003D00090E09587848784EC90E09787868780EC0F
:1003E00090E0918B808B81EC90E0938B828B82EC00
:1003F00090E0958B848B86EC90E0978B868B118EAA
:10040000128E138E148E0895E0912A01F0912B0123
:1004100082E08083E0912601F09127011082E09133
:100420002801F09129018CE0808310923201E09143
:100430002E01F0912F0186E08083E0912C01F09154
:100440002D01808180618083E0912C01F0912D014C
:10045000808188608083E0912C01F0912D01808162
:1004600080688083E0912C01F0912D0180818F7D47
:10047000808385E191E00E945B0184E191E00E942C
:100480005B0184E191E00E945B01F3CFEE0FFF1F5F
:100490000590F491E02D099481E090E0F8940C949B
:0604A0005102F894FFCFA9
:1004A60000000000EC005F008D003901BE009C00DA
:0A04B600B0000D0A007465737400B5
:00000001FF
